:0208680020006E
:10084000C290D291D295E5805480FFC29570F5C2D6
:010850009512
:010851002284
:0907F800FF120801E50A4480FF2C
:10080100AE07120840C290C291D2958E80C2952245
:06082A0014F9120749FF5A
:10083000AE07120840D290C291D2958E80C2952206
:1007DA007F301208017F0C1208017F011208017B89
:0E07EA00FF7A087968750F01E4FDFF0207B879
:1007B8008B0C8A0D890E12078DAB0C050EE50EAA5F
:1007C8000D7002050D12082A150FE50FD39400507D
:0207D800E82215
:0A06FC008F0A8D0B8B0C8A0D890EFE
:10070600AF0F150FEFD394004038AD0BAF0A1207A9
:100716008D050AE50AD394074005E4F50A050BABF7
:100726000CAA0DA90E120762FDACF0ECFF12083000
:10073600AF051208307402250EF50EE4350DF50DE1
:0207460080BE73
:01074800228E
:02078D00AE07B5
:10078F00E4FFED1460101460131460162403701648
:10079F00EE2480FF8010EE2490FF800AEE2488FF65
:0907AF008004EE2498FF02080109
:05085E007F0F020801FC
:050863007F0C020801FA
:100811007F301208017F011208017BFF7A08796895
:09082100750F01E4FDFF0207B8A8
:06052B008B108A118912F9
:100531007F341208017F34120801E4FCEC4480FF8F
:100541001208017F80120801E4FDAB100512E512CB
:10055100AA117002051112082AAB100512E512AAA0
:10056100117002051112082A0DBD08DE0CBC20CC49
:10057100E4FCEC4480FF1208017F88120801E4FDCD
:10058100AB100512E512AA117002051112082AAB6F
:10059100100512E512AA117002051112082A0DBDEB
:1005A10008DE0CBC20CC7F361208017F3002080126
:080499008F0A8B0B8A0C890D00
:1004A1007F341208017F34120801EDC394025030E9
:1004B100E4FCEDC454F044804C1207F8AB0B050D7D
:1004C100E50DAA0C7002050C12082AAB0B050DE50F
:1004D1000DAA0C7002050C12082A0CBC10D480372E
:1004E100E4FCEDC454F044804CFF120801E50A44D9
:1004F10088FF120801AB0B050DE50DAA0C70020572
:100501000C12082AAB0B050DE50DAA0C7002050CA7
:1005110012082A0CBC10CBEDC454F044801207F829
:0A0521007F361208017F3002080146
:1006A4007F341208017F34120801E4FCEC4480FF1B
:1006B4001208017F80120801E4FDE4FF120830E40F
:1006C400FF1208300DBD08F20CBC20E0E4FCEC4441
:1006D40080FF1208017F88120801E4FDE4FF12087C
:1006E40030E4FF1208300DBD08F20CBC20E07F3668
:0806F4001208017F3002080129
:02063100AB0715
:100633007F341208017F34120801EDC39402502461
:10064300E4FCEDC454F044804CFF120801EB4480F9
:10065300FF120801E4FF120830E4FF1208300CBC5B
:1006630010E08022E4FCEDC454F044804CFF1208F7
:1006730001EB4488FF120801E4FF120830E4FF1283
:1006830008300CBC10E0EDC454F04480FF120801A4
:10069300EB4480FF1208017F361208017F30020805
:0106A3000155
:1000030032303137202030352020303900D6DCD251
:10001300BB00BBB6D3ADCAB9D3C3D0A1C2F3D1BF62
:10002300B5E7D7D3D6D3A3B1A3B2A1C3A3B2A3B029
:10003300A1C3A3B2A3B000000000000000000000B1
:1000430000000000000000000000000000000000AD
:10005300000000000000000000000000000000009D
:10006300000000000000000000000000000000008D
:10007300000000000000000000000000000000007D
:10008300000000000000000000000000000000006D
:10009300000000000000000000000000000000005D
:1000A300000000000000000000000000000000004D
:1000B300000000000000000000000000000000003D
:1000C300000000000000000000000000000000002D
:1000D300000000000000000000000000000000001D
:1000E300000000000000000000000000000000000D
:1000F30000000000000000000000000000000000FD
:1001030000000000000000000000000000000000EC
:1001130000000000000001C000000000000000001B
:10012300000000000000021800000000078000FC2F
:100133000000000000000607FFDDFFF8704000FF2D
:100143000FFFFFC00FE0020000000001806000FF0E
:10015300FFFFFFFFFFF0030000000000004000FF6F
:10016300FFFFFFFFFFE003000000000000C000FFEF
:10017300FFFFFFFFFFE0060000000000004000FF5C
:10018300FFFFFFFFFFE0040000000000006001FF2D
:10019300FFFFFFFFFFF00C0000000000002003FF43
:1001A300FFFFFFFFFFF0080000000000002003FF37
:1001B300FFFFFFFFFFF01805E0000017003003FF0B
:1001C3008FFFFFFE7FF81001E0000007803007FF7C
:1001D30087FFFFFC3FF8100001FFFF03001007FF3C
:1001E300FFC1C0FE7FF8300006000080001007FF4B
:1001F300FF00003FFFF83000043870C000180FFF05
:10020300FE0C1C1FFFF820000410208000180FFFB5
:10021300FE0C083FFFFC20000307C70000180FFF78
:10022300FF80007FFFFC20000000000000180FFF8C
:10023300FFFFFFFFFFFC20000000000000080FFF8E
:10024300FFFFFFFFFFFC20000000000000180FFF6E
:10025300FFFFFFFFFFFC30000000000000180FFF4E
:10026300FFFFFFFFFFFC300000000000001807FF46
:10027300FFFFFFFFFFFC100000000000001807FF56
:10028300FFFFFFFFFFFC100000000000001007FF4E
:10029300FFFFFFFFFFF8180000000000001007FF3A
:1002A300FFFFFFFFFFF8080000000000001003FF3E
:1002B300FFFFFFFFFFF8080000000000003003FF0E
:1002C300FFFFFFFFFFF8040000000000002001FF14
:1002D300FFFFFFFFFFF0060000000000006001FFCA
:1002E300FFFFFFFFFFF0020000000000004000FFDF
:1002F300FFFFFFFFFFE00300000000000080007F1E
:10030300FFFFFFFFFFC00180000000000180007FAE
:10031300FFFFFFFFFFC000C37FFFFFFC8300003F21
:100323008FFFFFFE3F800062000000007C00000F93
:10033300000000000E00001E00000000000000028C
:1003430000000000000000000000000000000000AA
:10035300000000000000000000000000000000009A
:10036300000000000000000000000000000000008A
:10037300000000000000000000000000000000007A
:10038300000000000000000000000000000000006A
:10039300000000000000000000000000000000005A
:1003A300000000000000000000000000000000004A
:1003B300000000000000000000000000000000003A
:1003C300000000000000000000000000000000002A
:1003D300000000000000000000000000000000001A
:1003E300000000000000000000000000000000000A
:1003F30000000000000000000000000000000000FA
:1004030000000000000000000000000000000000E9
:1004130000000000000000000000000000000000D9
:1004230000000000000000000000000000000000C9
:100433000000000000003C1C7C1EFFFFFFFFFE3F8E
:10044300F98F798E718671F671F6780E380E3E3C0F
:100453001FFC1FFC1C1C000001004104200813901A
:1004630007C00FE0DFF61FF00FE007C0139020086E
:100473004104010000000000078003C001E001F017
:1004830000F800F800F800F800F801F003F007E0C6
:060493000FC01F00000075
:1005B1007508A17509A41207DA1206A47BFF7A0453
:1005C1007979E4FD7F051204997BFF7A007903753F
:1005D1000F0C7D017F011207B87B007A0079087545
:1005E1000F017D017F031206FC7B007A00790875FB
:1005F1000F017D017F051206FC7BFF7A00792975C9
:100601000F087D03E4FF1206FC7BFF7A0079107569
:100611000F037D027F031206FCE4FFFE0FBF000102
:100621000EBE75F8BF30F5E4FD7F0512063180FE80
:03000000020852A1
:0C085200787FE4F6D8FD7581120205B134
:10074900BB010689828A83E0225002E722BBFE02AE
:09075900E32289828A83E49322E1
:10076200BB010A89828A83E0F5F0A3E02250068762
:10077200F009E71922BBFE07E3F5F009E319228924
:0B078200828A83E493F5F07401932257
:00000001FF
