:0207E0002000F7
:1007B800C290D291D295E5805480FFC29570F5C25F
:0107C800959B
:0107C900220D
:09077000FF120779E50A4480FF3D
:10077900AE071207B8C290C291D2958E80C2952257
:0607A20014F91206C1FF6C
:1007A800AE071207B8D290C291D2958E80C2952218
:100752007F301207797F0C1207797F011207797BAC
:0E076200FF7A0779E0750F01E4FDFF02073012
:100730008B0C8A0D890E120705AB0C050EE50EAA6F
:100740000D7002050D1207A2150FE50FD39400508E
:02075000E8229D
:0A0674008F0A8D0B8B0C8A0D890E86
:10067E00AF0F150FEFD394004038AD0BAF0A120732
:10068E0005050AE50AD394074005E4F50A050BAB08
:10069E000CAA0DA90E1206DAFDACF0ECFF1207A89B
:1006AE00AF051207A87402250EF50EE4350DF50DF3
:0206BE0080BEFC
:0106C0002217
:02070500AE073D
:10070700E4FFED14601014601314601624037016D0
:10071700EE2480FF8010EE2490FF800AEE2488FFED
:090727008004EE2498FF0207791A
:0507D6007F0F0207790E
:0507DB007F0C0207790C
:100789007F301207797F011207797BFF7A0779E0B9
:09079900750F01E4FDFF020730B9
:06052B008B108A118912F9
:100531007F341207797F34120779E4FCEC4480FFA1
:100541001207797F80120779E4FDAB100512E512DD
:10055100AA11700205111207A2AB100512E512AA29
:1005610011700205111207A20DBD08DE0CBC20CCD2
:10057100E4FCEC4480FF1207797F88120779E4FDDF
:10058100AB100512E512AA11700205111207A2ABF8
:10059100100512E512AA11700205111207A20DBD74
:1005A10008DE0CBC20CC7F361207797F3002077938
:080499008F0A8B0B8A0C890D00
:1004A1007F341207797F34120779EDC394025030FB
:1004B100E4FCEDC454F044804C120770AB0B050D05
:1004C100E50DAA0C7002050C1207A2AB0B050DE598
:1004D1000DAA0C7002050C1207A20CBC10D48037B7
:1004E100E4FCEDC454F044804CFF120779E50A4462
:1004F10088FF120779AB0B050DE50DAA0C700205FB
:100501000C1207A2AB0B050DE50DAA0C7002050C30
:100511001207A20CBC10CBEDC454F044801207703A
:0A0521007F361207797F3002077958
:10061C007F341207797F34120779E4FCEC4480FFB5
:10062C001207797F80120779E4FDE4FF1207A8E432
:10063C00FF1207A80DBD08F20CBC20E0E4FCEC4452
:10064C0080FF1207797F88120779E4FDE4FF120717
:10065C00A8E4FF1207A80DBD08F20CBC20E07F3601
:08066C001207797F30020779C3
:1000030032303137202030352020303900D6DCD251
:10001300BB00BBB6D3ADCAB9D3C3D0A1C2F3D1BF62
:10002300B5E7D7D3D6D3A3B1A3B2A1C3A3B2A3B029
:10003300A1C3A3B2A3B000000000000000000000B1
:1000430000000000000000000000000000000000AD
:10005300000000000000000000000000000000009D
:10006300000000000000000000000000000000008D
:10007300000000000000000000000000000000007D
:10008300000000000000000000000000000000006D
:10009300000000000000000000000000000000005D
:1000A300000000000000000000000000000000004D
:1000B300000000000000000000000000000000003D
:1000C300000000000000000000000000000000002D
:1000D300000000000000000000000000000000001D
:1000E300000000000000000000000000000000000D
:1000F30000000000000000000000000000000000FD
:1001030000000000000000000000000000000000EC
:1001130000000000000001C000000000000000001B
:10012300000000000000021800000000078000FC2F
:100133000000000000000607FFDDFFF8704000FF2D
:100143000FFFFFC00FE0020000000001806000FF0E
:10015300FFFFFFFFFFF0030000000000004000FF6F
:10016300FFFFFFFFFFE003000000000000C000FFEF
:10017300FFFFFFFFFFE0060000000000004000FF5C
:10018300FFFFFFFFFFE0040000000000006001FF2D
:10019300FFFFFFFFFFF00C0000000000002003FF43
:1001A300FFFFFFFFFFF0080000000000002003FF37
:1001B300FFFFFFFFFFF01805E0000017003003FF0B
:1001C3008FFFFFFE7FF81001E0000007803007FF7C
:1001D30087FFFFFC3FF8100001FFFF03001007FF3C
:1001E300FFC1C0FE7FF8300006000080001007FF4B
:1001F300FF00003FFFF83000043870C000180FFF05
:10020300FE0C1C1FFFF820000410208000180FFFB5
:10021300FE0C083FFFFC20000307C70000180FFF78
:10022300FF80007FFFFC20000000000000180FFF8C
:10023300FFFFFFFFFFFC20000000000000080FFF8E
:10024300FFFFFFFFFFFC20000000000000180FFF6E
:10025300FFFFFFFFFFFC30000000000000180FFF4E
:10026300FFFFFFFFFFFC300000000000001807FF46
:10027300FFFFFFFFFFFC100000000000001807FF56
:10028300FFFFFFFFFFFC100000000000001007FF4E
:10029300FFFFFFFFFFF8180000000000001007FF3A
:1002A300FFFFFFFFFFF8080000000000001003FF3E
:1002B300FFFFFFFFFFF8080000000000003003FF0E
:1002C300FFFFFFFFFFF8040000000000002001FF14
:1002D300FFFFFFFFFFF0060000000000006001FFCA
:1002E300FFFFFFFFFFF0020000000000004000FFDF
:1002F300FFFFFFFFFFE00300000000000080007F1E
:10030300FFFFFFFFFFC00180000000000180007FAE
:10031300FFFFFFFFFFC000C37FFFFFFC8300003F21
:100323008FFFFFFE3F800062000000007C00000F93
:10033300000000000E00001E00000000000000028C
:1003430000000000000000000000000000000000AA
:10035300000000000000000000000000000000009A
:10036300000000000000000000000000000000008A
:10037300000000000000000000000000000000007A
:10038300000000000000000000000000000000006A
:10039300000000000000000000000000000000005A
:1003A300000000000000000000000000000000004A
:1003B300000000000000000000000000000000003A
:1003C300000000000000000000000000000000002A
:1003D300000000000000000000000000000000001A
:1003E300000000000000000000000000000000000A
:1003F30000000000000000000000000000000000FA
:1004030000000000000000000000000000000000E9
:1004130000000000000000000000000000000000D9
:1004230000000000000000000000000000000000C9
:100433000000000000003C1C7C1EFFFFFFFFFE3F8E
:10044300F98F798E718671F671F6780E380E3E3C0F
:100453001FFC1FFC1C1C000001004104200813901A
:1004630007C00FE0DFF61FF00FE007C0139020086E
:100473004104010000000000078003C001E001F017
:1004830000F800F800F800F800F801F003F007E0C6
:060493000FC01F00000075
:1005B1007508A17509A412075212061C7BFF7A0463
:1005C1007979E4FD7F051204997BFF7A007903753F
:1005D1000F0C7D017F011207307B007A00790875CD
:1005E1000F017D017F031206747B007A0079087583
:1005F1000F017D017F051206747BFF7A0079297551
:100601000F087D03E4FF1206747BFF7A00791075F1
:0B0611000F037D027F0312067480FEC1
:030000000207CA2A
:0C07CA00787FE4F6D8FD7581120205B1BD
:1006C100BB010689828A83E0225002E722BBFE0237
:0906D100E32289828A83E493226A
:1006DA00BB010A89828A83E0F5F0A3E022500687EB
:1006EA00F009E71922BBFE07E3F5F009E3192289AD
:0B06FA00828A83E493F5F074019322E0
:00000001FF
