:02036600200075
:10033E00C290D291D295E5805480FFC29570F5C2DD
:01034E009519
:01034F00228B
:04032A00EC4480FF20
:10032E00AE0712033EC290C291D2958E80C2952224
:0603140014F9120234FF8F
:10031A00AE0712033ED290C291D2958E80C2952228
:1002C5007F3012032E7F0C12032E7F0112032E7B2B
:0E02D500FF7A037966750F01E4FDFF0202A3B4
:1002A3008B0C8A0D890E120278AB0C050EE50EAA93
:1002B3000D7002050D120314150FE50FD3940050B2
:0202C300E8222F
:0A01E7008F108D118B128A138914FA
:1001F100AF151515EFD394004038AD11AF101202B1
:10020100780510E510D394074005E4F5100511AB0E
:1002110012AA13A91412024DFDACF0ECFF12031A3D
:10022100AF0512031A74022514F514E43513F513FE
:0202310080BE8D
:0102330022A8
:02027800AE07CF
:10027A00E4FFED1460101460131460162403701662
:10028A00EE2480FF8010EE2490FF800AEE2488FF7F
:09029A008004EE2498FF02032EFB
:05035C007F0F02032EDB
:050361007F0C02032ED9
:1002E3007F3012032E7F0112032E7BFF7A03796680
:0902F300750F01E4FDFF0202A3F6
:060119008B168A178918FD
:10011F007F3412032E7F3412032EE4FC12032A7F46
:10012F008012032EE4FDAB160518E518AA1770020E
:10013F000517120314AB160518E518AA1770020558
:10014F00171203140DBD08DE0CBC20D0E4FC120303
:10015F002A7F8812032EE4FDAB160518E518AA179F
:10016F0070020517120314AB160518E518AA1770BD
:10017F000205171203140DBD08DE0CBC20D07F360C
:08018F0012032E7F3002032E43
:080003008F0A8B0B8A0C890D9A
:10000B007F3412032E7F3412032EEDC3940250392A
:10001B00E4FCEDC454F044804CFF12032EE50A447B
:10002B0080FF12032EAB0B050DE50DAA0C7002051C
:10003B000C120314AB0B050DE50DAA0C7002050C8D
:10004B001203140CBC10CB8037E4FCEDC454F04409
:10005B00804CFF12032EE50A4488FF12032EAB0BD4
:10006B00050DE50DAA0C7002050C120314AB0B0564
:10007B000DE50DAA0C7002050C1203140CBC10CB71
:0A008B007F3612032E7F3002032E91
:100197007F3412032E7F3412032EE4FC12032A7FCE
:1001A7008012032EE4FDE4FF12031AE4FF12031A80
:1001B7000DBD08F20CBC20E4E4FC12032A7F881270
:1001C700032EE4FDE4FF12031AE4FF12031A0DBD28
:1001D70008F20CBC20E47F3612032E7F3002032E78
:10009500BBB6D3ADCAB9D3C3D0A1C2F3D1BFB5E7FF
:1000A500D7D3D6D3A3B1A3B2A1C3A3B2A3B0A1C3DF
:1000B500A3B2A3B03C1C7C1EFFFFFFFFFE3FF98FE0
:1000C500798E718671F671F6780E380E3E3C1FFCFE
:1000D5001FFC1C1C0000010041042008139007C0F0
:1000E5000FE0DFF61FF00FE007C013902008410472
:1000F500010000000000078003C001E001F000F8E6
:1001050000F800F800F800F801F003F007E00FC070
:040115001F000000C7
:1002FC007508A17509A41202C57BFF7A0079F9E48F
:08030C00FD7F0512000380FED5
:03000000020350A8
:0C035000787FE4F6D8FD7581180202FCED
:10023400BB010689828A83E0225002E722BBFE02C8
:09024400E32289828A83E49322FB
:10024D00BB010A89828A83E0F5F0A3E0225006877C
:10025D00F009E71922BBFE07E3F5F009E31922893E
:0B026D00828A83E493F5F07401932271
:00000001FF
