:10085F002000A1A0A1A0A1A0A1A0A1A0A1A0A1A0A2
:02086F00A1A046
:10084D00C290D291D295E5805480FFC29570F5C2C9
:01085D009505
:01085E002277
:09080500FF12080EE50A4480FF11
:10080E00AE0712084DC290C291D2958E80C295222B
:0608370014F9120756FF40
:10083D00AE0712084DD290C291D2958E80C29522EC
:1007E7007F3012080E7F0C12080E7F0112080E7B55
:0E07F700FF7A08795F750F01E4FDFF0207C568
:1007C5008B0C8A0D890E12079AAB0C050EE50EAA45
:1007D5000D7002050D120837150FE50FD394005063
:0207E500E82208
:0A0709008F0A8D0B8B0C8A0D890EF0
:10071300AF0F150FEFD394004038AD0BAF0A12079C
:100723009A050AE50AD394074005E4F50A050BABDD
:100733000CAA0DA90E12076FFDACF0ECFF12083DD9
:10074300AF0512083D7402250EF50EE4350DF50DC7
:0207530080BE66
:010755002281
:02079A00AE07A8
:10079C00E4FFED146010146013146016240370163B
:1007AC00EE2480FF8010EE2490FF800AEE2488FF58
:0907BC008004EE2498FF02080EEF
:05088C007F0F02080EC1
:050891007F0C02080EBF
:10081E007F3012080E7F0112080E7BFF7A08795F77
:09082E00750F01E4FDFF0207C58E
:0605B8008B108A1189126C
:1005BE007F3412080E7F3412080EE4FCEC4480FFE8
:1005CE0012080E7F8012080EE4FDAB100512E51224
:1005DE00AA1170020511120837AB100512E512AA06
:1005EE0011700205111208370DBD08DE0CBC20CCAF
:1005FE00E4FCEC4480FF12080E7F8812080EE4FD26
:10060E00AB100512E512AA1170020511120837ABD4
:10061E00100512E512AA11700205111208370DBD50
:10062E0008DE0CBC20CC7F3612080E7F3002080E7E
:080499008F0A8B0B8A0C890D00
:1004A1007F3412080E7F3412080EEDC394025030CF
:1004B100E4FCEDC454F044804C120805AB0B050D6F
:1004C100E50DAA0C7002050C120837AB0B050DE502
:1004D1000DAA0C7002050C1208370CBC10D4803721
:1004E100E4FCEDC454F044804CFF12080EE50A44CC
:1004F10088FF12080EAB0B050DE50DAA0C70020565
:100501000C120837AB0B050DE50DAA0C7002050C9A
:100511001208370CBC10CBEDC454F044801208050E
:0A0521007F3612080E7F3002080E2C
:1006B1007F3412080E7F3412080EE4FCEC4480FFF4
:1006C10012080E7F8012080EE4FDE4FF12083DE4DB
:1006D100FF12083D0DBD08F20CBC20E0E4FCEC4427
:1006E10080FF12080E7F8812080EE4FDE4FF120855
:1006F1003DE4FF12083D0DBD08F20CBC20E07F3641
:0807010012080E7F3002080E01
:02063E00AB0708
:100640007F3412080E7F3412080EEDC3940250243A
:10065000E4FCEDC454F044804CFF12080EEB4480DF
:10066000FF12080EE4FF12083DE4FF12083D0CBC27
:1006700010E08022E4FCEDC454F044804CFF1208EA
:100680000EEB4488FF12080EE4FF12083DE4FF124F
:10069000083D0CBC10E0EDC454F04480FF12080E7D
:1006A000EB4480FF12080E7F3612080E7F300208DE
:0106B0000E3B
:0F0871007BFF7A087961C374089FF50F020709AE
:1000030032303137202030352020303900D6DCD251
:10001300BB00BBB6D3ADCAB9D3C3D0A1C2F3D1BF62
:10002300B5E7D7D3D6D3A3B1A3B2A1C3A3B2A3B029
:10003300A1C3A3B2A3B000000000000000000000B1
:1000430000000000000000000000000000000000AD
:10005300000000000000000000000000000000009D
:10006300000000000000000000000000000000008D
:10007300000000000000000000000000000000007D
:10008300000000000000000000000000000000006D
:10009300000000000000000000000000000000005D
:1000A300000000000000000000000000000000004D
:1000B300000000000000000000000000000000003D
:1000C300000000000000000000000000000000002D
:1000D300000000000000000000000000000000001D
:1000E300000000000000000000000000000000000D
:1000F30000000000000000000000000000000000FD
:1001030000000000000000000000000000000000EC
:1001130000000000000001C000000000000000001B
:10012300000000000000021800000000078000FC2F
:100133000000000000000607FFDDFFF8704000FF2D
:100143000FFFFFC00FE0020000000001806000FF0E
:10015300FFFFFFFFFFF0030000000000004000FF6F
:10016300FFFFFFFFFFE003000000000000C000FFEF
:10017300FFFFFFFFFFE0060000000000004000FF5C
:10018300FFFFFFFFFFE0040000000000006001FF2D
:10019300FFFFFFFFFFF00C0000000000002003FF43
:1001A300FFFFFFFFFFF0080000000000002003FF37
:1001B300FFFFFFFFFFF01805E0000017003003FF0B
:1001C3008FFFFFFE7FF81001E0000007803007FF7C
:1001D30087FFFFFC3FF8100001FFFF03001007FF3C
:1001E300FFC1C0FE7FF8300006000080001007FF4B
:1001F300FF00003FFFF83000043870C000180FFF05
:10020300FE0C1C1FFFF820000410208000180FFFB5
:10021300FE0C083FFFFC20000307C70000180FFF78
:10022300FF80007FFFFC20000000000000180FFF8C
:10023300FFFFFFFFFFFC20000000000000080FFF8E
:10024300FFFFFFFFFFFC20000000000000180FFF6E
:10025300FFFFFFFFFFFC30000000000000180FFF4E
:10026300FFFFFFFFFFFC300000000000001807FF46
:10027300FFFFFFFFFFFC100000000000001807FF56
:10028300FFFFFFFFFFFC100000000000001007FF4E
:10029300FFFFFFFFFFF8180000000000001007FF3A
:1002A300FFFFFFFFFFF8080000000000001003FF3E
:1002B300FFFFFFFFFFF8080000000000003003FF0E
:1002C300FFFFFFFFFFF8040000000000002001FF14
:1002D300FFFFFFFFFFF0060000000000006001FFCA
:1002E300FFFFFFFFFFF0020000000000004000FFDF
:1002F300FFFFFFFFFFE00300000000000080007F1E
:10030300FFFFFFFFFFC00180000000000180007FAE
:10031300FFFFFFFFFFC000C37FFFFFFC8300003F21
:100323008FFFFFFE3F800062000000007C00000F93
:10033300000000000E00001E00000000000000028C
:1003430000000000000000000000000000000000AA
:10035300000000000000000000000000000000009A
:10036300000000000000000000000000000000008A
:10037300000000000000000000000000000000007A
:10038300000000000000000000000000000000006A
:10039300000000000000000000000000000000005A
:1003A300000000000000000000000000000000004A
:1003B300000000000000000000000000000000003A
:1003C300000000000000000000000000000000002A
:1003D300000000000000000000000000000000001A
:1003E300000000000000000000000000000000000A
:1003F30000000000000000000000000000000000FA
:1004030000000000000000000000000000000000E9
:1004130000000000000000000000000000000000D9
:1004230000000000000000000000000000000000C9
:100433000000000000003C1C7C1EFFFFFFFFFE3F8E
:10044300F98F798E718671F671F6780E380E3E3C0F
:100453001FFC1FFC1C1C000001004104200813901A
:1004630007C00FE0DFF61FF00FE007C0139020086E
:100473004104010000000000078003C001E001F017
:1004830000F800F800F800F800F801F003F007E0C6
:060493000FC01F00000075
:10052B007508A17509A41207E71206B17BFF7A04BF
:10053B007979E4FD7F051204997BFF7A00790375C5
:10054B000F0C7D017F011207C57B007A00790875BE
:10055B000F017D017F031207097B007A0079087573
:10056B000F017D017F051207097BFF7A0079297541
:10057B000F087D03E4FF1207097BFF7A00791075E2
:10058B000F037D027F03120709E4FFFE0FBF00017B
:10059B000EBE75F8BF30F5E4FD7F0512063E7BFFFE
:0D05AB007A047959E4FD7F0512049980FE61
:0300000002088073
:0C088000787FE4F6D8FD75811202052B8C
:10075600BB010689828A83E0225002E722BBFE02A1
:09076600E32289828A83E49322D4
:10076F00BB010A89828A83E0F5F0A3E02250068755
:10077F00F009E71922BBFE07E3F5F009E319228917
:0B078F00828A83E493F5F0740193224A
:00000001FF
