:100859002000A1A0A1A0A1A0A1A0A1A0A1A0A1A0A8
:02086900A1A04C
:10084700C290D291D295E5805480FFC29570F5C2CF
:01085700950B
:01085800227D
:0907FF00FF120808E50A4480FF1E
:10080800AE07120847C290C291D2958E80C2952237
:0608310014F9120750FF4C
:10083700AE07120847D290C291D2958E80C29522F8
:1007E1007F301208087F0C1208087F011208087B6D
:0E07F100FF7A087959750F01E4FDFF0207BF7A
:1007BF008B0C8A0D890E120794AB0C050EE50EAA51
:1007CF000D7002050D120831150FE50FD39400506F
:0207DF00E8220E
:0A0703008F0A8D0B8B0C8A0D890EF6
:10070D00AF0F150FEFD394004038AD0BAF0A1207A2
:10071D0094050AE50AD394074005E4F50A050BABE9
:10072D000CAA0DA90E120769FDACF0ECFF120837EB
:10073D00AF051208377402250EF50EE4350DF50DD3
:02074D0080BE6C
:01074F002287
:02079400AE07AE
:10079600E4FFED1460101460131460162403701641
:1007A600EE2480FF8010EE2490FF800AEE2488FF5E
:0907B6008004EE2498FF020808FB
:050886007F0F020808CD
:05088B007F0C020808CB
:100818007F301208087F011208087BFF7A0879598F
:09082800750F01E4FDFF0207BF9A
:0605B2008B108A11891272
:1005B8007F341208087F34120808E4FCEC4480FFFA
:1005C8001208087F80120808E4FDAB100512E51236
:1005D800AA1170020511120831AB100512E512AA12
:1005E80011700205111208310DBD08DE0CBC20CCBB
:1005F800E4FCEC4480FF1208087F88120808E4FD38
:10060800AB100512E512AA1170020511120831ABE0
:10061800100512E512AA11700205111208310DBD5C
:1006280008DE0CBC20CC7F361208087F3002080890
:080499008F0A8B0B8A0C890D00
:1004A1007F341208087F34120808EDC394025030DB
:1004B100E4FCEDC454F044804C1207FFAB0B050D76
:1004C100E50DAA0C7002050C120831AB0B050DE508
:1004D1000DAA0C7002050C1208310CBC10D4803727
:1004E100E4FCEDC454F044804CFF120808E50A44D2
:1004F10088FF120808AB0B050DE50DAA0C7002056B
:100501000C120831AB0B050DE50DAA0C7002050CA0
:100511001208310CBC10CBEDC454F044801207FF1B
:0A0521007F361208087F3002080838
:1006AB007F341208087F34120808E4FCEC4480FF06
:1006BB001208087F80120808E4FDE4FF120837E4F3
:1006CB00FF1208370DBD08F20CBC20E0E4FCEC4433
:1006DB0080FF1208087F88120808E4FDE4FF120867
:1006EB0037E4FF1208370DBD08F20CBC20E07F3653
:0806FB001208087F3002080814
:02063800AB070E
:10063A007F341208087F34120808EDC3940250244C
:10064A00E4FCEDC454F044804CFF120808EB4480EB
:10065A00FF120808E4FF120837E4FF1208370CBC3F
:10066A0010E08022E4FCEDC454F044804CFF1208F0
:10067A0008EB4488FF120808E4FF120837E4FF1267
:10068A0008370CBC10E0EDC454F04480FF1208088F
:10069A00EB4480FF1208087F361208087F300208F0
:0106AA000847
:0F086B007BFF7A08795BC374089FF50F020703C0
:1000030032303137202030352020303900D6DCD251
:10001300BB00BBB6D3ADCAB9D3C3D0A1C2F3D1BF62
:10002300B5E7D7D3D6D3A3B1A3B2A1C3A3B2A3B029
:10003300A1C3A3B2A3B000000000000000000000B1
:1000430000000000000000000000000000000000AD
:10005300000000000000000000000000000000009D
:10006300000000000000000000000000000000008D
:10007300000000000000000000000000000000007D
:10008300000000000000000000000000000000006D
:10009300000000000000000000000000000000005D
:1000A300000000000000000000000000000000004D
:1000B300000000000000000000000000000000003D
:1000C300000000000000000000000000000000002D
:1000D300000000000000000000000000000000001D
:1000E300000000000000000000000000000000000D
:1000F30000000000000000000000000000000000FD
:1001030000000000000000000000000000000000EC
:1001130000000000000001C000000000000000001B
:10012300000000000000021800000000078000FC2F
:100133000000000000000607FFDDFFF8704000FF2D
:100143000FFFFFC00FE0020000000001806000FF0E
:10015300FFFFFFFFFFF0030000000000004000FF6F
:10016300FFFFFFFFFFE003000000000000C000FFEF
:10017300FFFFFFFFFFE0060000000000004000FF5C
:10018300FFFFFFFFFFE0040000000000006001FF2D
:10019300FFFFFFFFFFF00C0000000000002003FF43
:1001A300FFFFFFFFFFF0080000000000002003FF37
:1001B300FFFFFFFFFFF01805E0000017003003FF0B
:1001C3008FFFFFFE7FF81001E0000007803007FF7C
:1001D30087FFFFFC3FF8100001FFFF03001007FF3C
:1001E300FFC1C0FE7FF8300006000080001007FF4B
:1001F300FF00003FFFF83000043870C000180FFF05
:10020300FE0C1C1FFFF820000410208000180FFFB5
:10021300FE0C083FFFFC20000307C70000180FFF78
:10022300FF80007FFFFC20000000000000180FFF8C
:10023300FFFFFFFFFFFC20000000000000080FFF8E
:10024300FFFFFFFFFFFC20000000000000180FFF6E
:10025300FFFFFFFFFFFC30000000000000180FFF4E
:10026300FFFFFFFFFFFC300000000000001807FF46
:10027300FFFFFFFFFFFC100000000000001807FF56
:10028300FFFFFFFFFFFC100000000000001007FF4E
:10029300FFFFFFFFFFF8180000000000001007FF3A
:1002A300FFFFFFFFFFF8080000000000001003FF3E
:1002B300FFFFFFFFFFF8080000000000003003FF0E
:1002C300FFFFFFFFFFF8040000000000002001FF14
:1002D300FFFFFFFFFFF0060000000000006001FFCA
:1002E300FFFFFFFFFFF0020000000000004000FFDF
:1002F300FFFFFFFFFFE00300000000000080007F1E
:10030300FFFFFFFFFFC00180000000000180007FAE
:10031300FFFFFFFFFFC000C37FFFFFFC8300003F21
:100323008FFFFFFE3F800062000000007C00000F93
:10033300000000000E00001E00000000000000028C
:1003430000000000000000000000000000000000AA
:10035300000000000000000000000000000000009A
:10036300000000000000000000000000000000008A
:10037300000000000000000000000000000000007A
:10038300000000000000000000000000000000006A
:10039300000000000000000000000000000000005A
:1003A300000000000000000000000000000000004A
:1003B300000000000000000000000000000000003A
:1003C300000000000000000000000000000000002A
:1003D300000000000000000000000000000000001A
:1003E300000000000000000000000000000000000A
:1003F30000000000000000000000000000000000FA
:1004030000000000000000000000000000000000E9
:1004130000000000000000000000000000000000D9
:1004230000000000000000000000000000000000C9
:100433000000000000003C1C7C1EFFFFFFFFFE3F8E
:10044300F98F798E718671F671F6780E380E3E3C0F
:100453001FFC1FFC1C1C000001004104200813901A
:1004630007C00FE0DFF61FF00FE007C0139020086E
:100473004104010000000000078003C001E001F017
:1004830000F800F800F800F800F801F003F007E0C6
:060493000FC01F00000075
:10052B007508A17509A41207E11206AB7BFF7A04CB
:10053B007979E4FD7F051204997BFF7A00790375C5
:10054B000F0C7D017F011207BF7B007A00790875C4
:10055B000F017D017F031207037B007A0079087579
:10056B000F017D017F051207037BFF7A0079297547
:10057B000F087D03E4FF1207037BFF7A00791075E8
:10058B000F037D027F03120703E4FFFE0FBF000181
:10059B000EBE75F8BF30F5E4FD7F051206387D0100
:0705AB007F0312086B80FEC4
:0300000002087A79
:0C087A00787FE4F6D8FD75811202052B92
:10075000BB010689828A83E0225002E722BBFE02A7
:09076000E32289828A83E49322DA
:10076900BB010A89828A83E0F5F0A3E0225006875B
:10077900F009E71922BBFE07E3F5F009E31922891D
:0B078900828A83E493F5F07401932250
:00000001FF
